:020000040000FA
:100000000C9463000C948B000C948B000C948B006C
:100010000C948B000C948B000C948B000C948B0034
:100020000C948B000C948B000C948B000C94240487
:100030000C948B000C948B000C948B000C948B0014
:100040000C94DA030C948B000C94A8030C94820398
:100050000C948B000C948B000C948B000C948B00F4
:100060000C948B000C948B006364696E6F707375D5
:1000700078585B000000000800020100000304073C
:100080000000000000000000000000002500280023
:100090002B0000000000240027002A0004040404B0
:1000A0000404040402020202020203030303030322
:1000B00001020408102040800102040810200102FF
:1000C00004081020E00411241FBECFEFD8E0DEBFEB
:1000D000CDBF11E0A0E0B1E0EAEEF4E102C005908E
:1000E0000D92AE33B107D9F723E0AEE3B1E001C022
:1000F0001D92A231B207E1F710E0C3E6D0E004C0E0
:100100002197FE010E942207C236D107C9F70E943B
:1001100057050C94730A0C940000CF93DF93DC0115
:100120008C918C3008F070C0CB019927FC01E05510
:10013000FF4F249184569F4FFC018491882399F0AE
:1001400090E0880F991FFC01EE56FF4FC591D491A6
:10015000FC01E857FF4F859194918FB7F894E8819F
:10016000E22BE8838FBF8C91282F30E0F901EE0F4E
:10017000FF1FE20FF31FE951FD4F962F9F73608120
:10018000607C692B608397EA11969C9311979BE49E
:1001900012969C9312972CE0622F0E941607829F62
:1001A000B001112430E020E0AB01420F531FFA01EF
:1001B000EE0FFF1FE40FF51FE951FD4F908196FDF3
:1001C00016C02F5F3F4F2C30310571F781110FC0E2
:1001D0001092800082E0809381001092850010923E
:1001E0008400B19A80916F00826080936F00EC91DF
:1001F0008E2F90E0FC01EE0FFF1FE80FF91FE95171
:10020000FD4F8081806480838C91DF91CF91089530
:10021000AF92BF92CF92DF92EF92FF920F931F9314
:10022000CF93DF936C017B018B01040F151FEB0152
:100230005E01AE18BF08C017D10759F06991D60109
:10024000ED91FC910190F081E02DC6010995892B7B
:1002500079F7C501DF91CF911F910F91FF90EF903A
:10026000DF90CF90BF90AF900895FC01538D448DE7
:10027000252F30E0842F90E0821B930B541710F051
:10028000CF96089501970895FC01918D828D98175E
:1002900061F0A28DAE0FBF2FB11D5D968C91928D36
:1002A0009F5F9F73928F90E008958FEF9FEF089567
:1002B000FC01918D828D981731F0828DE80FF11D30
:1002C000858D90E008958FEF9FEF0895FC01918D4B
:1002D000228D892F90E0805C9F4F821B91098F7344
:1002E000992708958AE492E00E94660121E0892B13
:1002F00009F420E0822F089580E090E0892B29F016
:100300000E94720181110C9400000895FC01A48DDB
:10031000A80FB92FB11DA35ABF4F2C91848D90E027
:1003200001968F739927848FA689B7892C93A0890A
:10033000B1898C91837080648C93938D848D981394
:1003400006C00288F389E02D80818F7D8083089527
:10035000EF92FF920F931F93CF93DF93EC0181E015
:10036000888F9B8D8C8D98131AC0E889F9898081BC
:1003700085FF15C09FB7F894EE89FF896083E889EF
:10038000F98980818370806480839FBF81E090E0E1
:10039000DF91CF911F910F91FF90EF900895F62E6E
:1003A0000B8D10E00F5F1F4F0F731127E02E8C8D08
:1003B0008E110CC00FB607FCFACFE889F98980814D
:1003C00085FFF5CFCE010E948601F1CFEB8DEC0FBA
:1003D000FD2FF11DE35AFF4FF0829FB7F8940B8F6A
:1003E000EA89FB8980818062CFCFCF93DF93EC01D4
:1003F000888D8823B9F0AA89BB89E889F9898C910D
:1004000085FD03C0808186FD0DC00FB607FCF7CFC8
:100410008C9185FFF2CF808185FFEDCFCE010E94C8
:100420008601E9CFDF91CF91089590E0FC01EC586F
:10043000FF4F2491FC01E055FF4F3491FC01E4563D
:10044000FF4FE491EE23C9F0222339F0233001F16C
:10045000A8F4213019F1223029F1F0E0EE0FFF1F4E
:10046000E857FF4FA591B4918FB7F894EC916111C3
:1004700026C030953E233C938FBF08952730A9F0C6
:100480002830C9F0243049F7809180008F7D03C067
:10049000809180008F7780938000DFCF84B58F7745
:1004A00084BDDBCF84B58F7DFBCF8091B0008F778B
:1004B0008093B000D2CF8091B0008F7DF9CF3E2BDA
:1004C000DACF3FB7F8948091440190914501A09113
:1004D0004601B091470126B5A89B05C02F3F19F0F2
:1004E0000196A11DB11D3FBFBA2FA92F982F8827B4
:1004F000BC01CD01620F711D811D911D42E0660F8F
:10050000771F881F991F4A95D1F708958F929F9260
:10051000AF92BF92CF92DF92EF92FF926B017C017C
:100520000E9461024B015C01C114D104E104F10499
:10053000B9F00E946102681979098A099B09683E2D
:1005400073408105910580F321E0C21AD108E108CA
:10055000F10888EE880E83E0981EA11CB11CE4CF40
:10056000FF90EF90DF90CF90BF90AF909F908F90D3
:100570000895DC01EC91EC3090F511968C91119777
:1005800028E830E0281B310987FD3395220F331FFF
:10059000220F331F6217730784F012968C9128E59F
:1005A00032E0281B310987FD3395220F331F220FBC
:1005B000331F621773070CF49B0122503109220F7D
:1005C000331F4FB7F8948E2F90E0FC01EE0FFF1F02
:1005D000E80FF91FE951FD4F328321834FBF089582
:1005E000FC0101900020E9F73197AF01481B590B3E
:1005F000BC018AE492E00C9408018F929F92AF9222
:10060000BF92CF92DF92EF92FF920F931F93CF93FF
:10061000DF93CDB7DEB7A1970FB6F894DEBF0FBE5C
:10062000CDBF6C01990FEE08FF08F7FE47C06DE2E1
:100630008AE492E00E94A8018C0122273327A901B5
:100640002C193D094E095F0919A2CE0181967C0142
:100650009AE0892E912CA12CB12CCA01B901A501D7
:1006600094010E94F406605DF70162937F012115F9
:1006700031054105510589F790E080E0309719F088
:10068000CF010E94F002080F191F84E191E00E943F
:10069000F002800F911FA1960FB6F894DEBF0FBE37
:1006A000CDBFDF91CF911F910F91FF90EF90DF9021
:1006B000CF90BF90AF909F908F900895A701960123
:1006C00019A28E010F5D1F4F8AE0C82ED12CE12C9C
:1006D000F12CCA01B901A70196010E94F406605DE0
:1006E000F80162938F01211531054105510589F704
:1006F000309729F0CF010E94F0028C01C6CF10E0A4
:1007000000E0C3CF1F920F920FB60F9211242F93C8
:100710003F934F935F936F937F938F939F93AF9389
:10072000BF93EF93FF938AE492E00E948601FF91CA
:10073000EF91BF91AF919F918F917F916F915F9159
:100740004F913F912F910F900FBE0F901F901895D2
:100750001F920F920FB60F9211242F938F939F9396
:10076000EF93FF93E0915A02F0915B028081E09158
:100770006002F091610282FD1BC090818091630252
:100780008F5F8F7320916402821741F0E0916302C2
:10079000F0E0E65BFD4F958F80936302FF91EF9150
:1007A0009F918F912F910F900FBE0F901F901895D2
:1007B0008081F4CF1F920F920FB60F9211242F93C6
:1007C0003F938F939F93AF93BF93809140019091FC
:1007D0004101A0914201B091430130913F0123E0DA
:1007E000230F2D3758F50196A11DB11D20933F0110
:1007F0008093400190934101A0934201B093430143
:100800008091440190914501A0914601B09147012A
:100810000196A11DB11D8093440190934501A093C1
:100820004601B0934701BF91AF919F918F913F9146
:100830002F910F900FBE0F901F90189526E8230F51
:100840000296A11DB11DD2CF1F920F920FB60F922B
:1008500011242F933F934F935F936F937F938F93C5
:100860009F93AF93BF93CF93DF93EF93FF938091C9
:100870003E01C0910B03D0E087FF24C01092850099
:100880001092840080913E018F5F80933E018091A1
:100890003E01082E000C990B8C179D0724F48091C3
:1008A0003E018C30C4F180918400909185000496C3
:1008B00080349C4908F47AC080918400909185002E
:1008C000049676C080913E01082E000C990B8C177F
:1008D0009D07C4F6E0913E018E2FEE0F990BFC01AF
:1008E000EE0FFF1FE80FF91FE951FD4F808186FFD2
:1008F000C9CFE0913E018E2FEE0F990BFC01EE0F58
:10090000FF1FE80FF91FE951FD4F808160E08F73F1
:100910000E941502B7CF2091840030918500E091AC
:100920003E018E2FEE0F990BFC01EE0FFF1FE80F1B
:10093000F91FE951FD4F81819281820F931F90939E
:10094000890080938800E0913E018E2FEE0F990B75
:10095000FC01EE0FFF1FE80FF91FE951FD4F8081E9
:1009600086FF11C0E0913E018E2FEE0F990BFC0126
:10097000EE0FFF1FE80FF91FE951FD4F808161E085
:100980008F730E941502FF91EF91DF91CF91BF917C
:10099000AF919F918F917F916F915F914F913F9117
:1009A0002F910F900FBE0F901F90189580E49CE937
:1009B00090938900809388008FEF80933E01E3CF6E
:1009C00010924D0210924C0288EE93E0A0E0B0E04D
:1009D00080934E0290934F02A0935002B093510225
:1009E00086E091E090934B0280934A0285EC90E080
:1009F000909357028093560284EC90E090935902B2
:100A00008093580280EC90E090935B0280935A02AE
:100A100081EC90E090935D0280935C0282EC90E028
:100A200090935F0280935E0286EC90E09093610267
:100A30008093600210926302109264021092650229
:100A40001092660280910B038C3048F591E0980F6C
:100A500090930B0380930F0390E0FC01EE0FFF1FB8
:100A6000E80FF91FE951FD4F88EB9BE092838183EA
:100A700080910B038C30B8F491E0980F90930B03A6
:100A800080930C0390E0FC01EE0FFF1FE80FF91FAD
:100A9000E951FD4F88EB9BE09283818308958FEFAE
:100AA00080930F03E5CF8FEF80930C030895CF93CE
:100AB000DF9300D000D0CDB7DEB7789484B58260E4
:100AC00084BD84B5816084BD85B5826085BD85B5F2
:100AD000816085BD80916E00816080936E00109270
:100AE00081008091810082608093810080918100EB
:100AF000816080938100809180008160809380007C
:100B00008091B10084608093B1008091B0008160D9
:100B10008093B00080917A00846080937A00809105
:100B20007A00826080937A0080917A00816080935D
:100B30007A0080917A00806880937A001092C100D8
:100B4000E0915A02F0915B0282E08083E0915602CC
:100B5000F09157021082E0915802F091590280E121
:100B6000808310926202E0915E02F0915F0286E063
:100B70008083E0915C02F0915D02808180618083DE
:100B8000E0915C02F0915D02808188608083E09159
:100B90005C02F0915D02808180688083E0915C025C
:100BA000F0915D0280818F7D808369E070E08FE04D
:100BB00093E00E948D006CED75E08FE093E00E9461
:100BC000B9026091000170910101072E000C880BA1
:100BD000990B0E948602E0910F038E2F90E0FC019A
:100BE000EE0FFF1FE80FF91FE951FD4F80818F7B4A
:100BF00080836AE070E08CE093E00E948D006CEDF1
:100C000075E08CE093E00E94B90260910001709160
:100C10000101072E000C880B990B0E948602E091BF
:100C20000C038E2F90E0FC01EE0FFF1FE80FF91F61
:100C3000E951FD4F80818F7B808308E411E060E003
:100C4000462E61E0562E7DE2672E71E0772E9E01E2
:100C50002F5F3F4F59017E0133E0E30EF11CE4E2C8
:100C6000CE2EE1E0DE2E30E0832E30E0932E8AE4BB
:100C700092E00E946601181619060CF0A2C08AE4E0
:100C800092E00E9444012091480230914902F9010A
:100C9000E85BFE4F8A30910521F08D30910509F017
:100CA0009CC01082109249021092480284E191E0A7
:100CB0000E94F00287E191E00E94F00288E491E056
:100CC0000E94F00284E191E00E94F00280914801CC
:100CD0008D3609F05CC0BF92AF92FF92EF92DF9227
:100CE000CF921F930F930E9428078B819C810E94B3
:100CF000FD0289819A810E94FD028B819C810FB641
:100D0000F894DEBF0FBECDBF8130910529F569E0B3
:100D100070E08FE093E00E948D0069817A818FE01E
:100D200093E00E94B9026091000170910101072EC9
:100D3000000C880B990B0E948602E0910F038E2F06
:100D400090E0FC01EE0FFF1FE80FF91FE951FD4F86
:100D500080818F7B808335C0029799F56AE070E0CF
:100D60008CE093E00E948D0069817A818CE093E0B1
:100D70000E94B9026091000170910101072E000CE0
:100D8000880B990B0E948602E0910C03D8CF843621
:100D9000C1F45F924F927F926F921F930F930E94C4
:100DA000280781E391E00E94F00280910001909178
:100DB00001010E94FD020F900F900F900F900F9075
:100DC0000F908114910409F452CF0E94720188237C
:100DD00009F44DCF0E94000046CF2F5F3F4F309364
:100DE000490220934802B6CFA1E21A2EAA1BBB1BD0
:100DF000FD010DC0AA1FBB1FEE1FFF1FA217B307E7
:100E0000E407F50720F0A21BB30BE40BF50B661FFC
:100E1000771F881F991F1A9469F7609570958095C0
:100E200090959B01AC01BD01CF010895991B79E01C
:100E300004C0991F961708F0961B881F7A95C9F76A
:100E400080950895EE0FFF1F0590F491E02D099411
:100E5000AEE0B0E0EEE2F7E00C944C0A85E08C8363
:100E60008B899C899A838983AE01495E5F4F6D8926
:100E70007E89CE0101960E94CC082E96E2E00C9469
:100E8000680A20FD09C0FC0123FD05C022FF02C045
:100E90007383628351834083089544FD17C046FDE8
:100EA0001DC0DB01FC01AA0FBB1FEE1FFF1F10942A
:100EB000D1F76A0F7B1F8E1F9F1F660F771F881F3A
:100EC000991F620F711D811D911D089533E0660FFA
:100ED000771F881F991F3150D1F7F3CF34E0F7CF38
:100EE0000F931F93CF93DF938C01C8010E94E509F4
:100EF000EC0197FD08C00E94D109892BB1F7B80118
:100F0000CE010E94210ACE01DF91CF911F910F9156
:100F100008958F929F92AF92BF92EF92FF920F939C
:100F20001F93CF93DF938C01D62F7A01B22E0E94AC
:100F3000E5099C0133272B32310529F02D3231058B
:100F4000A9F46894B7F8D15061F480E0DF91CF91B3
:100F50001F910F91FF90EF90BF90AF909F908F9057
:100F60000895C8010E94E50997FDEFCFCB2DCD7FF5
:100F70002B2D2073F9F48033E9F4AA24AA94AD0E42
:100F800089F0C8010E94E50997FD0CC0282F2F7D2C
:100F9000283561F4C264D25029F0C8010E94E509E5
:100FA00097FF08C0812C912C54011BC0B6FE2BC0AA
:100FB000C260DA2D812C912C540120ED280F2830AD
:100FC00028F1C4FD09C02A3008F1C6FF05C02F7DF5
:100FD0003FEE320F3630C8F0B8010E94210AC1FF3F
:100FE000B4CFC7FF08C0B094A09490948094811CA3
:100FF000911CA11CB11C2C2FB501A401C7010E949A
:10100000410781E0A3CFC261D4CF27504C2FC50147
:10101000B4010E944D074B015C01C260D15009F33D
:10102000C8010E94E50997FFC8CFD9CFA0E2B0E080
:10103000ECE1F8E00C94410A5C01962E7A01CE01B5
:1010400001966C0180E2F60111928A95E9F7F501AB
:10105000B381890130E020E0712C812CA0E041E0D7
:1010600050E0F801B3FD8591B3FF8191982F8F0176
:10107000811107C010E000E0C801A096EDE00C94DB
:101080005D0A8E3519F42115310541F1A2171306B9
:101090004CF48D3549F18D3229F4811006C0882435
:1010A00083941DC0882009F464C0E92FE695E69575
:1010B000E695EC0DFD2DF11D892F8770BA0101C059
:1010C000660F8A95EAF78081682B6083791651F064
:1010D000971510F49F5FE9CF9150E7CFA1E02F5F04
:1010E0003F4FBFCF812CFBCF882019F08E818062CB
:1010F0008E83AA2359F0F6019E012F5D3F4F808118
:10110000809580833196E217F307C9F7882483948A
:10111000C5010E94E50997FD16C0E82FE695E69502
:10112000E695EC0DFD2DF11D208130E0AC014770FE
:10113000552702C0359527954A95E2F720FD06C050
:10114000B5010E94210A882069F094CFE114F104CE
:1011500029F0F7018083C70101967C019A94812CC4
:101160009110D6CFE114F10409F486CFF701108273
:1011700083CFE82FE695E695E695EC0DFD2DF11D64
:10118000982F9770BA0101C0660F9A95EAF790817F
:10119000692B6083782EA3CFB0E0A0E0E2EDF8E009
:1011A0000C943F0A6C01EB015A01FC011782168274
:1011B000512CF601E380FE01E3FC8591E3FE819171
:1011C000182FEF018823E9F090E00E94D109892BC4
:1011D00021F0C6010E947007ECCF153241F4FE01E8
:1011E000E3FC1591E3FE1191EF01153269F4C6019C
:1011F0000E94E50997FD8EC01817D9F2B6010E942A
:10120000210A852D90E08AC000E01A3231F4E3FC17
:101210001591E3FE1191EF0101E0F12C20ED210F7A
:101220002A3048F101FF37C0FF2059F31836B1F1D9
:101230001C3609F43DC0112321F3612F70E088E6CC
:1012400090E00E94DA09892BE1F2912C812C00FDBB
:1012500006C0F50180809180C50102965C011E36B2
:1012600079F5F6014681578170E060E0202FC401D6
:101270000E9441079ECF02606F2D70E090E080E0F9
:1012800040E20E944D07F62EFE01E3FC1591E3FEBD
:101290001191EF01C3CFFF24FA94C8CFFE01E3FC04
:1012A0001591E3FE1191EF01183609F0C4CF0860E3
:1012B0000460FE01E3FC1591E3FE1191EF01BBCF49
:1012C0001336C1F401FD02C0FF24F394C6010E944D
:1012D000E50997FD1FC08114910429F0F401808372
:1012E000C40101964C01FA94F110F0CF00FD61CFDA
:1012F00053945FCF1B35B9F49E01A4016F2DC60135
:101300000E941608EC01892B89F7F601838180730E
:1013100009F477CF8FEF9FEF511073CFCDB7DEB7C2
:10132000EFE00C945B0AC6010E94700797FDF2CFB4
:101330001F36A9F130F4143641F0193639F0006443
:1013400005C01337B9F01537D1F70062202FA4017B
:101350006F2DC6010E9489078111C8CFD6CF811495
:10136000910429F0F4016082C40101964C01FA94C1
:10137000FF2071F0C6010E94E5093C0197FD08C0FD
:101380000E94D109892B59F3B601C3010E94210A99
:101390008114910409F4AACFF4011082A7CF00614F
:1013A000D5CF91110C94390A803219F089508550AB
:1013B000C8F70895FC010590061621F00020D9F722
:1013C000C00108953197CF010895CF93DF93EC01C9
:1013D0002B8120FF1AC026FF0CC02F7B2B838E8110
:1013E0009F8101969F838E838A8190E0DF91CF91C8
:1013F000089522FF18C0E881F9818081082E000C31
:10140000990B009729F420622B838FEF9FEFEECF8B
:101410003196F983E8832E813F812F5F3F4F3F83D1
:101420002E839927E3CFEA85FB85099597FFF3CFB4
:101430002B81019621F080E2822B8B83E6CF80E125
:10144000FBCFFB01238120FF11C026FD0FC08F3F82
:10145000980771F082832F7D206423832681378152
:101460002150310937832683992708958FEF9FEF05
:1014700008959927882708952F923F924F925F925F
:101480006F927F928F929F92AF92BF92CF92DF9294
:10149000EF92FF920F931F93CF93DF93CDB7DEB7F9
:1014A000CA1BDB0B0FB6F894DEBF0FBECDBF09948D
:1014B0002A88398848885F846E847D848C849B84E4
:1014C000AA84B984C884DF80EE80FD800C811B81F2
:1014D000AA81B981CE0FD11D0FB6F894DEBF0FBE21
:1014E000CDBFED010895F894FFCF2C01000000005E
:1014F000A80108013501F5016601440158010D0AF2
:1015000000476F74207061636B65743A20006D252D
:10151000642C207025640064256400736572766F06
:081520005F64656C61793A001B
:107E0000112484B714BE81FFF0D085E080938100F7
:107E100082E08093C00088E18093C10086E0809377
:107E2000C20080E18093C4008EE0C9D0259A86E02C
:107E300020E33CEF91E0309385002093840096BBD3
:107E4000B09BFECF1D9AA8958150A9F7CC24DD24C4
:107E500088248394B5E0AB2EA1E19A2EF3E0BF2EE7
:107E6000A2D0813461F49FD0082FAFD0023811F036
:107E7000013811F484E001C083E08DD089C08234E0
:107E800011F484E103C0853419F485E0A6D080C0E4
:107E9000853579F488D0E82EFF2485D0082F10E0AE
:107EA000102F00270E291F29000F111F8ED06801E7
:107EB0006FC0863521F484E090D080E0DECF843638
:107EC00009F040C070D06FD0082F6DD080E0C81688
:107ED00080E7D80618F4F601B7BEE895C0E0D1E017
:107EE00062D089930C17E1F7F0E0CF16F0E7DF06D8
:107EF00018F0F601B7BEE89568D007B600FCFDCFD4
:107F0000A601A0E0B1E02C9130E011968C91119780
:107F100090E0982F8827822B932B1296FA010C0160
:107F200087BEE89511244E5F5F4FF1E0A038BF0790
:107F300051F7F601A7BEE89507B600FCFDCF97BE46
:107F4000E89526C08437B1F42ED02DD0F82E2BD052
:107F50003CD0F601EF2C8F010F5F1F4F84911BD097
:107F6000EA94F801C1F70894C11CD11CFA94CF0C13
:107F7000D11C0EC0853739F428D08EE10CD085E9AC
:107F80000AD08FE07ACF813511F488E018D01DD067
:107F900080E101D065CF982F8091C00085FFFCCF94
:107FA0009093C60008958091C00087FFFCCF809118
:107FB000C00084FD01C0A8958091C6000895E0E648
:107FC000F0E098E1908380830895EDDF803219F02E
:107FD00088E0F5DFFFCF84E1DECF1F93182FE3DFCA
:107FE0001150E9F7F2DF1F91089580E0E8DFEE27F6
:047FF000FF270994CA
:027FFE00040479
:00000001FF
